:020000040800F2
:10000000F0200020AD020008DF3A0008613000084F
:10001000DD3A0008FD0B00089147000800000000D1
:10002000000000000000000000000000ED010008DA
:10003000FF0B00080000000049020008893C00088E
:10004000C7020008C7020008C7020008C70200086C
:10005000C7020008C7020008C7020008C70200085C
:10006000C7020008C7020008C7020008C70200084C
:10007000C7020008C7020008C7020008C70200083C
:10008000C7020008C7020008C7020008C70200082C
:10009000C7020008C7020008C7020008C70200081C
:1000A000C7020008513D0008C7020008C702000847
:1000B000C7020008C7020008C7020008C7020008FC
:1000C000C7020008C7020008C7020008C7020008EC
:1000D000C7020008C7020008C7020008C7020008DC
:1000E000C7020008C7020008C7020008C7020008CC
:1000F000C7020008C7020008C7020008C7020008BC
:10010000C7020008C7020008C7020008C7020008AB
:10011000C7020008C7020008C7020008C70200089B
:10012000C7020008C7020008C7020008C70200088B
:10013000C7020008C7020008C7020008C70200087B
:10014000C7020008C7020008C7020008000000003C
:10015000000000000000000000000000000000009F
:10016000000000000000000000000000C7020008BE
:10017000C7020008C7020008C7020008C70200083B
:10018000C7020008C7020008C7020008C70200082B
:10019000C702000800000000C7020008C7020008EC
:1001A000C7020008C7020008C7020008C70200080B
:1001B000C7020008C7020008C7020008C7020008FB
:1001C000C7020008C7020008C7020008C7020008EB
:1001D000C7020008C7020008DFF80CD000F024FBBB
:1001E00000480047DD500008F02000202C4B196823
:1001F0000868B0E8F04F80F30988BFF36F8F4FF0C5
:10020000000080F311887047000000000848006873
:10021000006880F308884FF0000080F3148862B60D
:1002200061B6BFF34F8FBFF36F8F00DF00BF00BF1A
:1002300008ED00E0DFF80C00016841F47001016096
:10024000704700BF88ED00E0EFF30980BFF36F8FC8
:10025000134B1A681EF0100F08BF20ED108A20E91A
:10026000F04F106009B44FF0500080F31188BFF3D5
:100270004F8FBFF36F8F05F019FE4FF0000080F332
:10028000118809BC19680868B0E8F04F1EF0100F1B
:1002900008BFB0EC108A80F30988BFF36F8F7047F6
:1002A0001C000020EFF305807047000006488047DF
:1002B00006480047FEE7FEE7FEE7FEE7FEE7FEE74B
:1002C000FEE7FEE7FEE7FEE7353D0008D90100083E
:1002D0002DE9F05F0546002092469B46884606467B
:1002E000814640241BE0284641464746224600F00E
:1002F000E8F853465A46C01A914110D311461846A1
:10030000224600F0CFF82D1A67EB01084F4622462F
:100310000120002100F0C6F817EB00094E41201E15
:10032000A4F10104DFDC484631462A464346BDE8D5
:10033000F09F40EA01039B0703D009E008C9121FA0
:1003400008C0042AFAD203E011F8013B00F8013B8F
:10035000521EF9D27047D2B201E000F8012B491EBB
:10036000FBD270470022F6E710B513460A46044652
:100370001946FFF7F0FF204610BD2DE9FE4F81EA38
:10038000030404F0004421F0004100944FF0000BFE
:1003900023F0004350EA01045ED052EA03045BD02C
:1003A000C3F30A54C1F30A552C44A4F2F334019464
:1003B000A0FB0254C1F3130141F48011C3F31303F2
:1003C00043F4801301FB024400FB034E840A970AA6
:1003D00044EA815447EA8357A4FB076802958D0AD3
:1003E00005FB07854FEA932C04FB0C542705029D5F
:1003F0004FEA065847EA1637B5EB08056EEB070CCF
:10040000870E920E47EA811742EA8312A7FB020188
:10041000B6EB0B0164EB00042B0D43EA0C335E18C2
:1004200044EB1C50DA465146E7FB0201C5F31304C6
:100430004FEA0B3343EA14534FEA0432019C43EA78
:100440000603A4F10C040294009CCDE900B400F072
:1004500057F803B0BDE8F08F00200146F9E70EB56C
:1004600040F2334102910021CDE900110A460B46CA
:1004700000F046F803B000BD30B50B460146002041
:100480002022012409E021FA02F59D4205D303FA56
:1004900002F5491B04FA02F52844151EA2F10102D7
:1004A000F1DC30BD202A04DB203A00FA02F1002002
:1004B00070479140C2F1200320FA03F319439040A2
:1004C0007047202A04DB203A21FA02F0002170470D
:1004D00021FA02F3D040C2F12002914008431946AC
:1004E000704710B5141E73F1000408DA401C41F186
:1004F000000192185B411A4301D120F0010010BDA8
:100500002DE9F04D92469B4611B1B1FA81F202E01D
:10051000B0FA80F220329046FFF7C4FF04460F463F
:1005200040EA0A0041EA0B0153465A46084313D0F9
:10053000114653EA010019D0C8F140025046FFF7B6
:10054000C0FF05460E46504659464246FFF7AAFFF1
:10055000084305D0012004E020463946BDE8F08D6F
:100560000020054346EAE0762C4337430A986305AA
:10057000E40AA0EB08000022FD0A44EA47540A30CE
:1005800002D500200146E9E7010510196941DDE9BE
:10059000084500196941BDE8F04DA2E72DE9FE4F7D
:1005A000804681EA0300C00F0C46009021F0004114
:1005B00023F00045B8EB0200A94105D24046214690
:1005C00090461C460B46024623F00040104347D09D
:1005D000270DC7F30A00C3F30A510290401A019095
:1005E00040286BDAC3F3130040F4801B0098924656
:1005F00020B10023D2EB030A63EB0B0B01985946A1
:10060000C0F140025046FFF74DFF06460D465046EA
:100610005946019A00F01AF910EB080061410024D4
:1006200087EA115284EAE7731A4340D0009A62B312
:10063000019A012A4FEA075215DC001B61EB020107
:100640004FF0004202EA0752CDE90042001C41F59A
:10065000801132462B46FFF753FF03B0BDE8F08F01
:1006600040462146F9E7001B61EB0201001C41F501
:10067000801300185B412018A2F5001747EB030117
:1006800040EAD570B6196D4111E06D084FEA3606A3
:1006900045EAC0754FEA0752001B61EB0201001CDE
:1006A00041F5801149084FEA3000001951413246A6
:1006B0002B4603B0BDE8F04FFFF713BF00980122AF
:1006C00040000023D0EB020263EBE0730098214668
:1006D0004FEAE074B8EB000061EB0401E9E783F056
:1006E00000435BE781F0004158E72DE9F04D81EAD6
:1006F000030404F0004B21F0004514464FF0000ABB
:1007000023F0004150EA050220D054EA01021DD036
:10071000C5F30A570246C5F31303C1F31300C1F32F
:100720000A5640F4801543F48013A7EB0608101B0B
:10073000D64608F2FD3873EB050002D308F1010834
:1007400001E092185B41B8F1000F03DA0020014686
:10075000BDE8F08D00204FF48011064684460EE07F
:10076000171B73EB050705D3121B63EB0503064349
:100770004CEA010C49084FEA300092185B4150EAFC
:100780000107EDD152EA030012D082EA040083EAA5
:100790000501084305D0101BAB4106D201220023FE
:1007A00006E000224FF0004302E06FF00102531018
:1007B0001AEB06004CEB085110EB0A0041EB0B0161
:1007C000BDE8F04DFFF78DBEC1F30A52C1F313012E
:1007D00040F2FF3341F480119A4202DA00200146D0
:1007E000704740F233439A42A2F2334202DC524253
:1007F000FFF767BEFFF756BE30B5041E71F1000467
:1008000004DB4FF00044404264EB0101141E73F11D
:10081000000405DB1C464FF00043524263EB040327
:10082000994208BF904230BD064C074D06E0E06893
:1008300040F0010394E8070098471034AC42F6D327
:10084000FFF7CEFCA46A0008C46A0008202A06DB71
:10085000CB17203A41FA02F043EAE07306E041FA8E
:1008600002F3D040C2F1200291400843194670477C
:100870002DE9F041044600270D46006802F066FEAF
:100880000646206802F05EFE304359D02068C168F9
:100890002C4E890105D5617F012902D1217F0129D3
:1008A0000BD0022D1DD0206802F050FEB8B1206898
:1008B0008168C1F3400169B111E00125224902E0DC
:1008C0008F422ED27F1C0268D2435206F8D44021B8
:1008D0000160E8E78168314041F010018160012D3D
:1008E00011D0206802F02EFE48B120688168C1F363
:1008F000400121B98168314041F020018160022D21
:1009000008D0032D04D0042501F0A2F8064613E018
:100910000C25F9E70825F7E701F09AF8801B052870
:100920000AD9E06D40F01000E065206E40F0010053
:1009300020660120BDE8F081206880682842EBD164
:100940000020F7E7C0FFFF7F000040A370B504461A
:10095000006881688268C1F3400112F0010F24D061
:1009600019BB816801F00D01012910D18168104A7D
:100970001140891C816021680320086001F068F83B
:1009800005460EE001F064F8401B022809D9E06D2D
:1009900040F01000E065206E40F00100206601206C
:1009A00070BD20688068C007ECD1002070BD0000D9
:1009B000C0FFFF7F70B504460068816811F0010F29
:1009C00028D18168144A114215D18168D543294044
:1009D000491C816001F03CF8064616E0816811F080
:1009E000010F03D181682940491C816001F030F872
:1009F000801B022809D9E06D40F01000E065206EF0
:100A000040F001002066012070BD20680168C943E4
:100A1000C907E3D1002070BD3F0000802DED048B9D
:100A200082B00020009083466C464FF6FF7601901E
:100A3000D846CDF800B000274FF48069CDF804B057
:100A40007F21544800F01AF910B153A003F0A2FE20
:100A50000025504800F040FE31464E4800F0A0FD11
:100A60004C4800F035FC54F82510084444F82500A3
:100A70006D1C022DEDDB474800F0CAFE48467F1C86
:100A80008742DDDB0099CDF80080C1F38F2A019900
:100A9000CDF80480C1F38F29002780467F2141488B
:100AA00000F0ECF810B13CA003F074FE00253D48C6
:100AB00000F012FE31463B4800F072FD394800F06C
:100AC00007FC54F82510084444F825006D1C022D3D
:100AD000EDDB344800F09CFE7F1C4745DEDB0098D0
:100AE000C0F38F270198C0F38F255046FFF7B7FC5E
:100AF0009FED2D8B53EC182BFFF73FFC9FED2C9BAC
:100B000053EC192BFFF739FC41EC100B514653EC19
:100B1000102B29A003F03EFE4846FFF7A0FC53EC43
:100B2000182BFFF72AFC53EC192BFFF726FC41EC9E
:100B3000100B494653EC102B24A003F02BFE384633
:100B4000FFF78DFC53EC182BFFF717FC53EC192B18
:100B5000FFF713FC41EC100B394653EC102B1FA090
:100B600003F018FE2846FFF77AFC53EC182BFFF72A
:100B700004FC53EC192BFFF700FC41EC100B294649
:100B800053EC102B19A003F005FE4FF47A7005F01A
:100B9000D9F84DE70401002063616C692066616942
:100BA0006C0D0A00980000200000000000000440C6
:100BB000000000000000303F0A416463313D2564BD
:100BC0003A252E33666D560A0000000041646332F8
:100BD0003D25643A252E33666D560A004164633321
:100BE0003D25643A252E33666D560A004164633410
:100BF0003D25643A252E33666D560A00FEE77047A0
:100C000010B501F05DF903F055F802F0D9FD02F0DE
:100C1000ADFE02F0DFFE02F011FF02F03FFD02F038
:100C2000E7FC02F049FE02F073FE02F0FBFB06A0B7
:100C300003F0B0FD09A10BA003F0ACFDBDE810402E
:100C40000B490C4803F0A6BD0A53544D33324734C8
:100C5000373320436F64650A00000000312E302EC8
:100C60003000000056657273696F6E3A25730A0092
:100C700020690008FC50000870470000F8B5002605
:100C80000446009690F858000D4601280BD001202C
:100C900084F858002046FFF759FE0100E06D04D0AB
:100CA00040F010002AE00220F8BD20F4885040F007
:100CB0000200E06520688268134B1A4005F080430B
:100CC0001A4342F000428260104A20680EE0009B06
:100CD0005B1C0093934209D3E06D20F0020040F0CA
:100CE0001000E06584F858600120F8BD8368DB0FD0
:100CF000EDD1E06D20F0020040F00100E06584F8E5
:100D000058600846F8BD0000C0FFFF3F02DE040047
:100D10002DE9F04F044690F858009BB00E464FF076
:100D2000000A012810D0012084F8580020684FF0F4
:100D3000A048474FDFF81C91474D4FF0000B40454E
:100D400006D12846009508E002201BB0BDE8F08FD0
:100D5000B8420AD14846CDF8009002F0FBFB009063
:100D6000206802F0F7FB40B109E0E16D41F020019D
:100D7000E16584F858B00120E7E7009850B1E06DD4
:100D800040F02000E0654FF0010A00BF84F858B041
:100D90005046DAE720684146884201D0A84201D196
:100DA0002E4800E02E48D6F800C02E4B40F61F72A9
:100DB000BCF1000F2CD0D0F808C094F838802CF487
:100DC000604C4CEA483CD6F804804CEA080CC0F869
:100DD00008C0D4F800C08C4501D0AC4504D1896866
:100DE000AB6801F0010108E0B968D9F8085001F0DA
:100DF000010105F001059B68294303F00103194334
:100E0000C4D1B368316819438368934319431CE024
:100E1000866826F46046866026688E4201D0AE421F
:100E200004D18968AB6801F0010108E0B968D9F81C
:100E3000085001F0010105F001059B68294303F00A
:100E400001031943A2D18168914381609EE70000AC
:100E50000004005000050050000100500003005045
:100E600000070050000600502DE9F84F0027044607
:100E7000009790F85800DFF818840D46B94601280D
:100E800011D0012684F85860206802F05FFB60B141
:100E9000E06D40F02000E0655FF0010784F85890B5
:100EA0003846BDE8F88F0220FBE7D5E900210C2386
:100EB000206803EA91131844036B01F01F014FF0FF
:100EC0001F0C0CFA01FCC2F3846223EA0C038A4073
:100ED00013430363206802F039FB8246206802F066
:100EE00031FB5AEA00003CD1AA6829682068B2F1B7
:100EF000004F37D002F03AFB2068416921F00041F1
:100F0000416120686969C268C2F3C1025200914020
:100F10002A69042A31D000EB82002B68026EDFF8C8
:100F200074C303F0F84302EA0C020B431A4342F085
:100F30000041016620682A69A96900EB8200026EFF
:100F400022F080720A430266297F226828690129FB
:100F500010D0002102EB8000026E22F000720A43E2
:100F600002667DE0002202F001FB2068416941F049
:100F70000041C5E74FF00071ECE7002102F0DCFA18
:100F8000400320684FF0000172D002F0D5FA90FAC9
:100F9000A0F0B0FA80F1286842036ED090FAA0F079
:100FA000B0FA80F0814204D100221146206802F09C
:100FB000ECFA0121206802F0BFFA400320684FF0EC
:100FC00001015DD002F0B8FA90FAA0F0B0FA80F119
:100FD0002868420359D090FAA0F0B0FA80F081421C
:100FE00004D100220121206802F0CFFA02212068FA
:100FF00002F0A2FA400320684FF0020148D002F04C
:101000009BFA90FAA0F0B0FA80F12868420344D02D
:1010100090FAA0F0B0FA80F0814204D100220221BF
:10102000206802F0B2FA0321206802F085FA40033A
:1010300020684FF0030133D002F07EFA90FAA0F05E
:10104000B0FA80F1286842032FD090FAA0F0B0FAED
:1010500080F0814204D100220321206802F095FA39
:101060002068816811F0010F22D0ACE000E004E0BC
:1010700002F062FAC0F384618DE7C0F3846091E707
:1010800002F05AFAC0F38461A2E7C0F38460A6E7D5
:1010900002F052FAC0F38461B7E7C0F38460BBE7A3
:1010A00002F04AFAC0F38461CCE7C0F38460D0E771
:1010B0002A7B296850F8B03FC1F3120C23EA0C03D5
:1010C00002F0180C744A22FA0CF20A40134303602F
:1010D000E968414577D1286841031CD090FAA0F116
:1010E000B1FA81F1491C01F01F0109294FEA403191
:1010F00032D8002912D000BF90FAA0F1B1FA81F1E4
:1011000001F1010101F01F0106FA01F609D100BF4A
:10111000C0F3846109E0C0F38461E3E7C0F3846154
:10112000EEE790FAA0F1B1FA81F101F1010101F0CD
:101130001F0146EA816102D1C0F3846003E090FAA6
:10114000A0F0B0FA80F000F1010000F01F0000EB09
:10115000400041EA005132E000290ED090FAA0F19F
:10116000B1FA81F101F1010101F01F0106FA01F666
:1011700006D100BFC0F3846106E0C0F38461F1E7EB
:1011800090FAA0F1B1FA81F101F1010101F01F0122
:1011900046EA816102D1C0F3846003E090FAA0F0D6
:1011A000B0FA80F000F1010000F01F003B4A00EBB4
:1011B000400002EB005041EA000141F00071AA68D2
:1011C000206802F0D3F936482B6803423FF466AE3C
:1011D00021684FF0A04C3348334E344D614501D067
:1011E000A94201D1024600E032469268DFF8C08091
:1011F00002F0E072434503D0DFF8B880434520D1C8
:101200005FEA02281DD4614506D02B4B99427FF43A
:1012100045AEA94200D0304642F40001826822F077
:10122000E0720A438260254825490068B0FBF1F06E
:1012300000EB4000800000E0401E00900028FBD141
:101240002CE6DFF8808043450FD15FEAC2180CD44A
:10125000A94202D11C4B9942F2D0614502D0A94269
:1012600000D0304642F080710CE0DFF860804345EA
:10127000E6D15302E4D4A942E2D0614500D0304621
:1012800042F48001826822F0E0720A43826005E63F
:1012900000007F4000F0FF03FFFF0700000020FE7A
:1012A00000000880000300500007005000010050BB
:1012B000000021C31000C09000060050180000205C
:1012C000400D0300000052C700050050000084CB11
:1012D0000068006C70470000F8B54FF0000504008E
:1012E0002E46009502D0E06D10B107E00120F8BD58
:1012F000204600F00BF9266684F858602068816863
:10130000C1F3407119B18168744A1140816020684D
:101310008168C1F3007179B98168714A114041F067
:10132000805181606F4870490068B0FBF1F000E0C7
:10133000401E00900028FBD120688168C1F3007135
:1013400041B9E16D41F01001E165216E41F001010B
:101350002166012502F0FAF8E16DC90600D430B12A
:10136000E06D40F01000E06501252846F8BDE06D15
:1013700020F4807040F00200E0652068816811F080
:10138000010F27D14FF0A043584A984201D0904214
:1013900004D19968966801F001010AE0544989680E
:1013A000544E01F00101B66806F001063143524E79
:1013B000B66806F0010631430CD1984201D0904244
:1013C00001D14E4800E04E486168826822F47C12E8
:1013D0000A438260E168E06B627F0843A16841EAEA
:1013E0004231084394F8241040EA0140012904D115
:1013F000218D444A02EB41410843E16A29B101F4DD
:101400007871226B014342EA01002268D1683E4BA9
:1014100019400143D16020680169626B21F040618D
:1014200011430161206802F091F80646206802F03D
:1014300089F806432ED1207F94F83810800340EAC3
:1014400041022168C86844F2020398431043C8600F
:1014500020690028206801690AD041F480310161C7
:10146000206850F8C01F22696FF30D01114307E097
:1014700021F480310161206850F8C01F6FF30D0125
:10148000016094F8400001280CD02068016921F027
:1014900001010161606901282068016B21F00F01E1
:1014A00011D013E0D4E911010843D4E91312114318
:1014B000084321680A6940F2FC739A43104340F0E4
:1014C00001000861E6E7226A521E11430163E06DE4
:1014D00020F0020040F00100E06546E7C0FFFF5F3A
:1014E000C0FFFF7F18000020400D030000010050E6
:1014F000000400500005005000060050000300509A
:10150000000700500000FEFF0740F0FF10B586B056
:10151000044614216846FEF725FF23681B4C002271
:101520001B480321A34215D1C36C43F40053C36489
:10153000C36C03F400530593C36C43F00403C3640A
:10154000C06C00F0040005900C208DE8070069468F
:10155000104817E0104CA34216D1C36C43F48043EB
:10156000C364C36C03F480430593C36C43F002036C
:10157000C364C06C009100F002000590CDE9011237
:101580006946064800F076F906B010BD000100502B
:101590000010024000080048000400500004004809
:1015A0002DE9F0470446884600684FF0A0454549BC
:1015B000454BDFF81891A84201D0484501D10A46B1
:1015C00000E01A46926802F01F06A269082A14D0A9
:1015D000AEB1052E13D0092E11D0A84202D0484535
:1015E00000D01946886800F4604058B1E06D40F0C2
:1015F0002000E0650120BDE8F087082703E0C0680F
:10160000C007F2E7042700F023FA82460CE000BF8F
:10161000B8F1FF3F08D000F01BFAA0EB0A014145EA
:1016200011D8B8F1000F0ED0206800683842EFD012
:10163000E06D40F40070E065206801F08FFFD0B1EC
:10164000607F48B117E0E06D40F00400E0650020E5
:1016500084F858000320CEE72068006800070AD508
:10166000E06D20F48070E065E06DC00403D4E06DAF
:1016700040F00100E0652068154A164B484501D14D
:101680002C4604E0904201D11C4600E0044684420E
:101690000AD04EB1052E07D0092E05D0484506D0F8
:1016A000904203D11D4602E0C16801E00546E968A9
:1016B000082F05D0490401D40C21016000209AE7CD
:1016C0000821FAE700030050000700500001005015
:1016D00000050050000400502DE9F0410446006868
:1016E0004FF0A045444FA84201D0B84201D1434930
:1016F00000E04349896801F01F0601F027FF18B197
:1017000002210846BDE8F08194F8580001280CD069
:10171000012084F858002046FFF74CF901004FF0F3
:10172000000204D084F85820EBE70220EAE7E06DDD
:1017300040F60163984340F48070E0652068314BC7
:10174000DFF8C4C0B84201D1AE4604E0984201D1EE
:10175000E64600E08646864500D02EB9D4F85CE027
:101760002EF4801EC4F85CE0D4F85CE05FEACE4E54
:1017700006D5D4F860E02EF0060EC4F860E000E074
:1017800022664FF01C0EC0F800E084F85820206854
:10179000B84201D12A4604E0984201D1624600E0F5
:1017A000024682420ED06EB1052E0BD0092E09D012
:1017B000E26D42F48012E265B84213D0984210D133
:1017C00065460FE0C268920105D5E26D22F4005231
:1017D00042F48052E26582680C4B1A40121D82600E
:1017E0008FE70546E86880018BD5E06D20F4005056
:1017F00040F48050E06584E7000100500003005091
:10180000000700500005005000040050C0FFFF7F9B
:1018100010B5044690F85800012808D0012084F83B
:10182000580003212046FFF723F810B10BE00220F7
:1018300010BD2046FFF78AF828B9E16D21F48851E0
:1018400041F00101E165002184F8581010BD00004D
:1018500070B5044600F0FCF80546601C02D0044850
:101860004068044400F0F4F8401BA042FAD370BD75
:101870000C0000202DE9FC4FDFF8A0A1002301257A
:101880000AF1040B03244FF00F0C0BF1040EBDE022
:1018900005FA03F632406FD04F68012F05D0022FB2
:1018A00003D0112F01D0122F17D1D0F808905F006C
:1018B00004FA07F829EA08090097D1F80C8008FA19
:1018C00007F848EA0908C0F808804768B7430E7966
:1018D000C6F300169E403E434660C6684FEA430882
:1018E00004FA08F7BE4301978F6807FA08F73743F1
:1018F000C7604E68022E01D0122E13D1DE0800EB15
:1019000086060096366A5F07FF0E0CFA07F926EA8C
:101910000906D1F8109009FA07F949EA0609009E6C
:10192000C6F820900668019FBE430F7907F00307B1
:1019300007FA08F7374307604E68F60065D5384E5A
:10194000376E47F001073766366E23F0030706F05F
:1019500001060096334E3E44B146B6689F074FEAF3
:1019600017780CFA08F7BE43B0F1904F05D02E4F10
:10197000B84204D1012717E047E0002714E02B4FBD
:10198000B84201D102270FE0294FB84201D1032705
:101990000AE0284FB84201D1042705E0264FB8429B
:1019A00001D1052700E0062707FA08F73743C9F8F1
:1019B0000870DAF800605746D1F8048096435FEA71
:1019C000C83800D516433E60DBF800605F46D1F8AA
:1019D000048096435FEA883800D516433E60DEF8FF
:1019E00000607746D1F8048096435FEAC82800D5A6
:1019F00016433E60094F0C373E68D1F80480964389
:101A00005FEA882800D516433E605B1C0A6832FAFC
:101A100003F67FF43DAFBDE8FC8F000000040140F9
:101A20000010024000000140000400480008004887
:101A3000000C0048001000480014004800690840ED
:101A400000D0012070470AB1816170478162704700
:101A500001488068704700000C00002090F8412089
:101A6000202A24D190F84020012A20D0012280F899
:101A70004020242280F841200268136823F00103EB
:101A800013600268136823F48053136002681368BC
:101A90000B43136001680A6842F001020A602021CA
:101AA00080F84110002180F840100846704702205D
:101AB000704790F84120202A22D190F84020012A36
:101AC0001ED0012280F84020242280F841200268A4
:101AD000136823F0010313600268136823F4706332
:101AE00043EA0121116001680A6842F001020A60BC
:101AF000202180F84110002180F8401008467047EE
:101B00000220704790F841007047000070B5040053
:101B100004D094F84100002510B106E0012070BD0A
:101B200084F84050204600F071F9242084F84100E8
:101B30002068016821F0010101606068216820F0DF
:101B4000706008612068816821F400418160E0686C
:101B50000128A06807D040F4044021688860E0684C
:101B6000022803D006E040F40040F6E721684FF475
:101B70000060486020684168114A11434160206854
:101B8000C16821F40041C160D4E904010843A1699E
:101B900040EA01202168C860D4E9070108432168B0
:101BA00008602068016841F001010160656420203F
:101BB00084F84100256384F84250002070BD000085
:101BC000008000022DE9F84F044690F84100DDF84E
:101BD00028A01F4690468B4620287ED194F84000CE
:101BE00001287AD0012084F84000FFF731FF064633
:101BF000012200901923D103204601F09BFAE0BB9B
:101C0000222084F84100102084F8420000256564F9
:101C1000C4F8248067856563618D3148FF274FF0E4
:101C200080784FF00079FF2903D927853A46009044
:101C300039E0618D218500903AE05946204601F057
:101C400063FA13E001F0A2FAB8B92068406A616A49
:101C50000870606A401C6062208D401E80B2208542
:101C6000618D491E6185618D01B168B1608D32461B
:101C7000002851462046E5D100E002E001F0C8FA14
:101C8000D0B10120BDE8F88F5346002280212046C4
:101C9000009601F04FFA0028F3D1608DFF2804D997
:101CA00027853A4600954346C7E7608D2085009515
:101CB00094F828204B46C0E721682020C86121689D
:101CC0004A68084B1A404A6084F8410084F8425040
:101CD00084F840500020D5E7FFE70220D2E700005B
:101CE0000024008000E800FE2DE9F84F044690F83B
:101CF0004100DDF828A01F4690468B4620287ED163
:101D000094F8400001287AD0012084F84000FFF7C1
:101D10009FFE0646012200901923D103204601F0C0
:101D200009FAE0BB212084F84100102084F8420029
:101D300000256564C4F8248067856563618D31483A
:101D4000FF274FF080784FF00079FF2903D92785CE
:101D50003A46009039E0618D218500903AE059467D
:101D6000204601F0D1F913E001F078FAB8B9606AC1
:101D7000216800788862606A401C6062608D401E45
:101D80006085208D401E80B22085618D01B168B1D3
:101D9000608D3246002851462046E5D100E002E041
:101DA00001F036FAD0B10120BDE8F88F5346002289
:101DB00080212046009601F0BDF90028F3D1608D06
:101DC000FF2804D927853A4600954346C7E7608D2A
:101DD0002085009594F828204B46C0E721682020F4
:101DE000C86121684A68084B1A404A6084F841007B
:101DF00084F8425084F840500020D5E7FFE70220E5
:101E0000D2E700000020008000E800FE70B586B038
:101E1000044614216846FEF7A5FA214E2568214C98
:101E20001221032208232048B54219D1E56C45F060
:101E30000405E564E56C05F0040505951502CDE99A
:101E4000005102AD002185E80E006946FFF712FD42
:101E5000A06D40F08040A065A06D00F080401BE0C8
:101E6000124EB54219D1E56C45F00405E564E56C08
:101E700005F004050595C025CDE9005102AD01210D
:101E800085E80E006946FFF7F5FCE06D40F00200C2
:101E9000E065E06D00F00200059006B070BD000046
:101EA0000078004000100240000800480084004014
:101EB0000248816842681144816070470C0000202C
:101EC00010B50024032000F095F8002000F008F879
:101ED00008B1012401E000F03DF8204610BD0000EB
:101EE00000B5014687B00022192000F063F81920E0
:101EF00000F052F81348016E41F400610166006E73
:101F000005A900F400600690684600F051FB00F05F
:101F100081FB0D490D4AB0FBF1F10D48491E0260ED
:101F2000416040F2E7320021C0E90321816000F006
:101F3000C8FD10B1012007B000BD054800F0F4FD58
:101F4000F9E700000010024040420F00002C014061
:101F50002C0300200E4808B5016E41F00101016616
:101F6000016E01F001010091816D41F080518165A8
:101F7000806D002200F0805000900F21901E00F034
:101F800019F80448816841F48041816008BD00006F
:101F90000010024000700040002809DB00F01F0222
:101FA000012191404009800000F1E020C0F80011BB
:101FB00070470000F0B40E4B1B680C46C3F30223BD
:101FC000C3F10705042D00D90425191D072901D2E5
:101FD000002300E0DB1E012606FA05F1491E214020
:101FE00099409E40761E16403143F0BC02F0E2BBA1
:101FF0000CED00E0064900F0070208684FF6FF0309
:10200000184040EA0220034A10430860704700006D
:102010000CED00E00000FA052B492C4B0A68322138
:102020004A432B4940B1B0F5007F086829D020F41D
:10203000C06040F480602CE00868C0F341200228B2
:1020400004D051F8800F20F4807022E0D1F8800095
:1020500020F48070C1F88000086820F4C06040F46B
:1020600000700860B2FBF3F0401C00E0401E4A69BB
:10207000520501D50028F9D1486940050AD5032049
:102080007047C0F34120022806D051F8800F40F479
:102090008070086000207047D1F8800040F48070A4
:1020A000C1F88000086820F4C06040F40070086047
:1020B000B2FBF3F0401C00E0401E4A695205DBD53C
:1020C0000028F9D1D8E700001800002040420F0096
:1020D000007000402DE9F843044600680026BB4D1F
:1020E00000035ED5A86D0027C00008D4A86D40F09D
:1020F0008050A865A86D012700F080500090DFF89F
:10210000D092D9F8001041F48071C9F80010FFF79F
:102110009FFC804606E000BFFFF79AFCA0EB08009A
:1021200002282BD8D9F80000C005F5D5D5F89000C5
:1021300010F4407014D0216D814211D0D5F8900078
:10214000D5F8901020F4407041F48031C5F890101B
:10215000D5F8901021F48031C5F89010C5F89000A2
:10216000C00711D0FFF774FC804641F2883907E0C0
:10217000FFF76EFCA0EB0801494501D903260BE0EF
:10218000D5F890008007F3D5D5F89000216D20F4A4
:1021900040700843C5F890001FB1A86D20F0805032
:1021A000A8652078C00707D0D5F88800616820F0BE
:1021B00003000843C5F888002078800707D5D5F8C4
:1021C0008800A16820F00C000843C5F8880020783A
:1021D000400707D5D5F88800E16820F030000843B3
:1021E000C5F888002078000707D5D5F88800216950
:1021F00020F0C0000843C5F888002078C00607D545
:10220000D5F88800616920F440700843C5F888005B
:102210002078800607D5D5F88800A16920F44060B1
:102220000843C5F888002078400607D5D5F888000F
:10223000E16920F440500843C5F888002078000682
:1022400007D5D5F88800216A20F440400843C5F836
:1022500088002088C00507D5D5F88800616A20F479
:1022600040300843C5F888002068800307D5D5F8BA
:102270009C00A16A20F003000843C5F89C00208858
:10228000800507D5D5F88800E16A20F4402008438E
:10229000C5F88800208840050FD5D5F88800216B47
:1022A00020F440100843C5F88800206BB0F5801F6B
:1022B00003D1E86840F48010E860208800050FD55D
:1022C000D5F88800616B20F440000843C5F8880009
:1022D000606BB0F5800F03D1E86840F48010E860CF
:1022E0002088C0040FD5D5F88800A16B20F040707D
:1022F0000843C5F88800A06BB0F1807F03D1E8687F
:1023000040F48010E86020884FF0006180040ED512
:10231000D5F88800E26B20F040601043C5F88800D3
:10232000E06B884203D1E86840F48010E8602088C0
:1023300040040ED5D5F88800226C20F04060104390
:10234000C5F88800206C884203D1E86840F480100A
:10235000E860208800040FD5D5F88800616C20F073
:1023600040500843C5F88800606CB0F1805F03D12D
:10237000E86840F48030E8602068C0030FD5D5F8E5
:102380008800A16C20F040400843C5F88800A06C8C
:10239000B0F1804F03D1E86840F48030E8602068F5
:1023A00040030FD5D5F89C00E16C20F440100843A1
:1023B000C5F89C00E06CB0F5001F03D1E86840F45C
:1023C0008010E8603046BDE8F8830000001002404D
:1023D000007000402DE9F0470E4605004FF0000761
:1023E00025D0DFF8AC81D8F8000000F00F00B04233
:1023F0000CD2D8F8001021F00F013143C8F80010BA
:10240000D8F8000000F00F00B04210D12968614CEC
:10241000C80741F2883A5AD06868DFF87C910328EF
:1024200008D0022820682DD0400500282CDB012090
:10243000BDE8F08720688001F9D5E06800F003026C
:10244000E068C0F30310401C032A19D0534A00BFB0
:10245000B2FBF0F0E268C2F306225043E268C2F336
:102460004162521C5200B0FBF2F0484517D9A068F7
:1024700010F0F00F0CD0880711D5A86840B10EE01D
:10248000474AE5E78003D0E700F0D6F8484506D98B
:10249000A06820F0F00040F08000A0608027A068D5
:1024A000696820F003000843A060FFF7D1FA814675
:1024B00006E000BFFFF7CCFAA0EB090151453AD87E
:1024C000A068696800F00C00B0EB810FF2D12868B9
:1024D000810714D5400703D5A06840F4E060A060F0
:1024E0002878000705D5A06820F4605040F4E0602B
:1024F000A060A068A96820F0F000084304E0802FE5
:1025000003D1A06820F0F000A060D8F80010404689
:1025100001F00F01B14216D9016821F00F013143DA
:102520000160FFF795FA074607E000BFFFF790FA52
:10253000C11B514501D903207AE7D8F8000000F00B
:102540000F00B042F2D12878400705D5A068E968AD
:1025500020F4E0600843A0602878000706D5A06852
:10256000296920F4605040EAC100A06000F064F8DE
:10257000A1680C4AC1F30311515C01F01F01C8406E
:102580000949086009480068BDE8F047FFF7A8BCA2
:10259000002002400010024000B4C4040024F400F3
:1025A00000366E01346A0008180000200C0000207C
:1025B0000F2202600C4A936803F0030343609368A0
:1025C00003F0F0038360936803F4E063C3609268F0
:1025D0004FF4E06303EAD20202610448006800F0AD
:1025E0000F00086070470000001002400020024009
:1025F0000548064900688968054AC1F30221515C13
:1026000001F01F01C8407047180000200010024070
:10261000446A00080548064900688968054AC1F30C
:10262000C221515C01F01F01C84070471800002012
:1026300000100240446A0008184910B58868C0F3C9
:1026400081021748012A0BD08A68164BC2F3810217
:10265000022A06D08A68C2F38102032A03D000202E
:1026600010BD184610BDCA6802F00304CA68C2F360
:102670000312521C032C02D0B0FBF2F001E0B3FBBA
:10268000F2F0CA68C968C2F306225043C1F341613F
:10269000491C4900B0FBF1F010BD000000100240E1
:1026A0000024F40000366E012DE9F84304007AD0CE
:1026B0002078FA4DC00747D0A868E96800F00C0000
:1026C00001F003010C2802D0082817D001E00329EB
:1026D00014D06068B0F5803F17D0B0F5A02F2868FF
:1026E00017D020F480302860286820F480202860EB
:1026F0006068E0B1FFF7ACF9064614E02868800393
:1027000022D560680028D2D01EE0286840F48030CE
:10271000EDE740F480202860F7E700BFFFF798F965
:10272000801B642870D828688003F7D50CE0FFF779
:102730008FF9064605E000BFFFF78AF9801B642881
:10274000F0D828688003F7D4207880074CD5A86893
:10275000E96800F00C0001F003010C2802D0042805
:102760000DD001E002290AD0E068002828682BD0AB
:1027700040F480702860FFF76BF9064619E028687E
:10278000400502D5E068002891D06868217C20F0DF
:10279000FE4040EA01606860C1480068FFF7A0FBA6
:1027A000002800D120E076E1FFF752F9801B0228D3
:1027B000B8D828684005F7D56868217C20F0FE402D
:1027C00040EA016068600FE020F480702860FFF745
:1027D0003FF9064605E000BFFFF73AF9801B0228E3
:1027E000A0D828684005F7D42078000729D560696B
:1027F0000028D5F8940013D040F00100C5F89400EB
:10280000FFF726F9064606E090E000BFFFF720F943
:10281000801B022886D8D5F894008007F6D510E0F2
:1028200020F00100C5F89400FFF712F9064604E015
:10283000FFF70EF9801B022878D8D5F8940080079E
:10284000F6D42078400761D5A86D0026C00008D4D2
:10285000A86D40F08050A865A86D012600F080505A
:10286000009090480168C90511D40168804641F480
:1028700080710160FFF7ECF8074604E0FFF7E8F825
:10288000C01B022852D8D8F80000C005F6D5A068B1
:10289000012815D00528D5F8900016D020F00100A9
:1028A000C5F89000D5F8900020F00400C5F890001D
:1028B000A06841F28838B8B1FFF7CAF807460EE0C1
:1028C000D5F8900040F00100F0E740F00400C5F8B2
:1028D0009000F5E7FFF7BCF8C11B414526D8D5F8B5
:1028E00090008007F6D50CE0FFF7B2F8074604E049
:1028F000FFF7AEF8C11B414518D8D5F89000800706
:10290000F6D41EB1A86D20F08050A865207880060E
:1029100029D5A0690028D5F8980013D040F001000F
:10292000C5F89800FFF794F8064606E077E000BF88
:10293000FFF78EF8801B022877D8D5F8980080071B
:10294000F6D510E020F00100C5F89800FFF780F8F8
:10295000064604E0FFF77CF8801B022865D8D5F80E
:1029600098008007F6D4E069F0B3A968C1F381014B
:10297000032961D00228286820F0807028600BD0DD
:10298000E86820F00300E860E86847490840E8602C
:10299000FFF75EF804464BE0FFF75AF8064604E0FE
:1029A000FFF756F8801B02283FD828688001F7D42B
:1029B000F4E908016FF00F0202EB01110843218ACC
:1029C0005204490802EB4151A26841EA022108433E
:1029D000217D4FF07E42490802EB41610843217B93
:1029E00040EAC160E96800E062E0304A1140084313
:1029F000E860286840F080702860E86840F08070E7
:102A0000E860FFF725F8044605E000BFFFF720F86F
:102A1000001B022809D828688001F7D548E004E0A7
:102A2000FFF716F8001B022802D90320BDE8F8833F
:102A300028688001F4D43BE00128F7D0E868226AD6
:102A400000F00301914226D1616A00F0F002090111
:102A5000103991421FD1A26A00F4FE41B1EB022F5E
:102A600019D194F82C2000F07841B1EBC26F12D14B
:102A7000218E00F4C00249084905A1F500119142D8
:102A800009D194F8341000F0C06049084906A1F15A
:102A9000007181420CD00120C8E700000010024004
:102AA0000C00002000700040FFFFEEFE0C809F0134
:102AB0000020BBE77047704770477047704770470A
:102AC000704710B5040003D094F83D0010B107E042
:102AD000012010BD002084F83C00204600F022F8C0
:102AE000022084F83D00211D206801F037F9012003
:102AF00084F8480084F83E0084F83F0084F84000E1
:102B000084F8410084F8420084F8430084F84400CB
:102B100084F8450084F8460084F8470084F83D00B6
:102B2000002010BD7047000090F83D10012901D031
:102B300001207047022180F83D100168CA6842F008
:102B40000102CA6000688168064A1140062906D061
:102B5000B1F5803F03D0016841F001010160002020
:102B60007047000007000100704770B50446006818
:102B700001694FF00005C943890715D4C168C943ED
:102B8000890711D4E91E016101202077206880693E
:102B90008007204602D0FFF7E7FF04E000F0E3F8EB
:102BA000204600F0E1F8257720680169C94349070C
:102BB00017D4C168C943490713D46FF004010161F8
:102BC000022020772068806910F4407F204602D0E0
:102BD000FFF7CAFF04E000F0C6F8204600F0C4F892
:102BE000257720680169C943090716D4C168C9431C
:102BF000090712D46FF008010161042020772068D2
:102C0000C0698007204602D0FFF7AEFF04E000F065
:102C1000AAF8204600F0A8F8257720680169C94382
:102C2000C90617D4C168C943C90613D46FF010018F
:102C30000161082020772068C06910F4407F204699
:102C400002D0FFF791FF04E000F08DF8204600F07D
:102C50008BF8257720680169C943C90708D1C16885
:102C6000C943C90704D1891E0161204600F07EF8DE
:102C700020680169C943090609D4C168C943090626
:102C800005D46FF0800101612046FFF714FF206832
:102C90000169C943C90509D4C168C943090605D4F6
:102CA0006FF4807101612046FFF704FF206801691D
:102CB000C943490609D4C168C943490605D46FF020
:102CC00040010161204600F05BF820680169C943BA
:102CD000890609D4C168C943890605D46FF020016B
:102CE00001612046FFF7E8FE20680169C943C90277
:102CF00009D4C168C943C90205D46FF480110161C8
:102D00002046FFF7DBFE20680169C943890209D428
:102D1000C168C943890205D46FF4001101612046DE
:102D2000FFF7CBFE20680169C943490209D4C16895
:102D3000C943490205D46FF4800101612046FFF7C1
:102D4000BEFE20680169C94309020BD4C168C943AA
:102D5000090207D46FF4000101612046BDE870400C
:102D6000FFF7AEBE70BD70477047000000680349B2
:102D7000884201D1FFF79CB870470000002C014049
:102D8000704790F87C10012918D0012180F87C1040
:102D90002421C0F8801050F8601B0A680B6823F0EB
:102DA00001030B6022F000510022426050F8603CA9
:102DB0001960202101620277104670470220704797
:102DC00070B5044690F87C0001281DD0012084F8DD
:102DD0007C002420C4F8800020680568026822F086
:102DE000010202602068826822F060620A43826009
:102DF000204601F01DF8206805602020C4F88000FE
:102E0000002084F87C0070BD022070BD70B50446BF
:102E100090F87C0001281DD0012084F87C0024203B
:102E2000C4F8800020680568026822F00102026090
:102E30002068826822F060420A438260204600F0E7
:102E4000F7FF206805602020C4F88000002084F887
:102E50007C0070BD022070BD10B5040003D0D4F812
:102E6000800010B107E0012010BD002084F87C0034
:102E7000204600F027F82420C4F88000206801686C
:102E800021F001010160204601F098F80128EBD003
:102E9000A06A10B1204600F0FDFF2068416821F4CF
:102EA000904141602068816821F02A01816020689A
:102EB000016841F0010101602046BDE8104001F0C9
:102EC0004DB80000F0B587B0044614216846FDF700
:102ED00049FA24682D4D00222D4902232D484FF434
:102EE0004066AC4217D18C6D44F400248C658C6D27
:102EF00004F400240594CC6C44F00404CC64C96C44
:102F0000009601F004010591CDE901320521CDE9DA
:102F1000032169461AE0204F0725BC421AD10C6EE6
:102F200044F480440C660C6E04F480440594CC6C2C
:102F300044F00404CC64C96C01F004010591302113
:102F40000091CDE90132CDE903256946FEF792FCF7
:102F500007B0F0BD11488442FAD1886D40F480205A
:102F60008865886D00F480200590C86C40F00200F0
:102F7000C864C86C0096CDE9013200F00200CDE9CA
:102F80000450694603920648E0E70000004C004008
:102F9000001002400008004800380140004800408E
:102FA000000400482DE9F8430446D0F880001F468D
:102FB00016460D46202851D1DDB1D6B194F87C00DB
:102FC00001284BD0012084F87C004FF00008C4F8A1
:102FD00088802120C4F880001834FEF739FDA687C8
:102FE0008146E68754F8100C183CB0F5805F03D09A
:102FF00004E00120BDE8F883206910B12E460025C9
:1030000010E000260EE08021204601F08FFBB8B9C9
:10301000C6B116F8010B21688862B4F85600401E4C
:10302000A4F85600B4F856004B464FF00002009743
:103030000028E8D14FF04001204601F077FB30B185
:103040000320D7E735F8020BC0F30800E3E72020A0
:10305000C4F8800084F87C800020CBE70220C9E718
:10306000FEE701688A69D243920701D400228A628E
:1030700000688169C943C90703D0816941F0010132
:10308000816170472DE9F0410446006890460E4684
:103090008069C043C00633D400252027206880699A
:1030A000C043800615D5701CF8D0FEF7D1FCA0EB0C
:1030B0000800B04201D8002EF0D154F8440F40F07F
:1030C000200044F804096770A57025700120BDE850
:1030D000F08121681020C8612068C7612046FFF791
:1030E000C0FF54F8440B4168064A11404160206813
:1030F00040F0040044F820096777A5772577E5E7D5
:103100000020E4E700E800FEF0B50568059C68686B
:103110004FF48066064FC1F3090106EA545641EAAE
:1031200002413E431943B043214308436860F0BD68
:10313000FF63FF032DE9F0411D4617460E46044686
:10314000DDF8188008E0681C06D0FEF781FCA0EBD3
:103150000800A8420BD855B12068806936EA000003
:1031600012D00020B842EED00020BDE8F08154F823
:10317000440F40F0200044F8040920206070002033
:10318000A07020700120F0E70120EBE72DE9F0416D
:10319000002690460F460446202525E04246394643
:1031A0002046FFF76FFF78BB20688069C043800628
:1031B00013D420688169C943490701D4218DC1B95D
:1031C000C56154F8440B4168104A1140416044F80D
:1031D00020696577A677267716E0FEF739FCA0EB25
:1031E0000800B84208D83FB120688069C043400752
:1031F000D4D40020BDE8F08154F8440F40F0200002
:1032000044F80409657026700120F3E700E800FE29
:1032100070B516460D4604460DE032462946204656
:10322000FFF730FF08B1012070BDFEF711FC801BD5
:10323000A84207D835B120688069C0438006ECD425
:10324000002070BD54F8440F40F0200044F80409F9
:10325000202060700020A0702070E4E770B5164652
:103260000D4604460FE0324629462046FFF70AFF86
:1032700008B1012070BD681C05D0FEF7E9FB801B7A
:10328000A84207D835B120688069C0438007EAD4D6
:10329000002070BD54F8440F40F0200044F80409A9
:1032A000202060700020A0702070E2E71CB5002193
:1032B000012804D0022805D0042803D102208DF86B
:1032C0000000019107488068002809D000230522EA
:1032D000694602F033FF002802D103A001F05AFA38
:1032E0001CBD00000000002053656E64204B657912
:1032F000205175657565204661696C0A0000000003
:1033000070B50D4C00266568A87808B1267070BDB0
:1033100000F066F8802805D020780128F7D1616890
:10332000887070BD012020706168002088702E8038
:1033300080202871EE7170BD000000202DE9F04161
:10334000264D6C6800F04CF869688978002942D0F5
:1033500023790126834213D12188491C89B2218017
:10336000B1F5967F07D30421E17003F07F0161710D
:103370006A680021917021881E292BD9E67129E005
:1033800000228021802805D0834220D9E579012DB3
:1033900015D01CE027887F1E452F0AD2E670217ABF
:1033A000491C217203F07F0161716A6800219170EC
:1033B00010E022806171217169688A700AE02588B5
:1033C0006D1E452D03D2191A6171228002E0228000
:1033D000617121712071BDE8F081000000000020C2
:1033E00010B58024A1010348FEF728FB00B9812411
:1033F000204610BD0008004810B504468079042816
:1034000007DA012805D105A001F0C4F9E078FFF73B
:103410004DFF0020E0708020A07110BD6B65792009
:10342000696E0A0030B587B014216846FCF79AFF30
:103430001748C16C41F00101C164C16C01F0010188
:103440000591C16C41F00201C164C06C012200F021
:103450000200104D5403059021462846FEF7F3FA6A
:10346000009400240120CDE9014002200390694628
:103470002846FEF7FFF908488021406804808470E0
:103480000472417101718171C47007B030BD0000D8
:10349000001002400008004800000020FFF74EFF27
:1034A0000A2002F04FFCF9E70F4A00210F4801F013
:1034B0007BFE10B90EA001F06DF9002208210A2050
:1034C00002F0A0FD104CA06060B110A001F062F904
:1034D000FFF716FF01F0F4FD0028F9D06068FFF750
:1034E0008BFFF5E70EA0F1E7106A00089D34000895
:1034F000437265617465204B65795461736B204636
:1035000061696C0A000000000000002043726561E0
:103510007465204B65795175657565204F4B0A00C0
:10352000437265617465204B6579517565756520D9
:103530004661696C0A00000000EB8100006E00F03B
:10354000F84070478068C0F3C00070478068C0F3DF
:10355000800070478068C0F380007047C06810F436
:10356000406F01D00020704701207047042303EA18
:10357000D15310B518444369C1F3045107248C405A
:10358000A3438A401343436110BD00EB8100016EE9
:1035900021F000411143016670474FF0904328B17C
:1035A00001280DD0022810D1C0010BE04FF40070AB
:1035B00008E0012200E0002201461846FEF743BA67
:1035C0004FF480600029F6D1F3E770474FF47A7426
:1035D00000210846FFF7E1FF204602F0B3FB01217E
:1035E0000020FFF7DAFF204602F0ACFBF0E7000016
:1035F00030B58BB0002408940994202168460A94C1
:10360000FCF7B0FE224821490425C0E9001484607B
:1036100085610121C460C0E9044104774477022236
:10362000026280F82410C0E90A14046380F838406C
:10363000C46380F84040FDF74FFE08B1FDF71CFB66
:1036400008A913480894FDF763FB08B1FDF714FBC4
:10365000104800900620CDE901047F200594CDE9B3
:10366000030569460A48FDF7FFFB08B1FDF704FBB7
:10367000094800900C20019069460548FDF7F4FBCD
:10368000002801D0FDF7F8FA0BB030BD0001005062
:1036900098000020000180210002B02530B58BB0D9
:1036A000002408940994202168460A94FCF75AFEE5
:1036B000224821490425C0E9001484608561012164
:1036C000C460C0E90441047744770222026280F8B2
:1036D0002410C0E90A14046380F83840C46380F8F9
:1036E0004040FDF7F9FD08B1FDF7C6FA08A91348F7
:1036F0000894FDF70DFB08B1FDF7BEFA10480090E5
:103700000620CDE901047F200594CDE90305694633
:103710000A48FDF7A9FB08B1FDF7AEFA0948009089
:103720000C20019069460548FDF79EFB002801D05A
:10373000FDF7A2FA0BB030BD0004005004010020D8
:10374000001060320200300410B5154A00211548FF
:1037500001F02AFD144C124A002120602432134843
:1037600001F022FD0E4AA06048320021104801F00D
:103770001BFD0B4A60606C3200210E4801F014FD05
:10378000074AE060903200210B4801F00DFD044A29
:103790002061B4320021094801F006FD606110BDCE
:1037A00038690008E13A000870010020A9340008D7
:1037B000CD3500081D0A0008ED3B0008A53A0008B9
:1037C0002DE9F04387B014216846FCF7CBFD37485C
:1037D000C16C41F00401C164C16C01F004010591A8
:1037E000C16C41F00201C164C16C01F0020105919C
:1037F000C16C41F00101C164C06C012500F0010001
:1038000005904FF4E0660024CDE90065CDE902544F
:103810004FF0904769463846FEF72CF800223146B3
:103820003846FEF710F9680302268DE85100DFF8EC
:10383000809069464846FEF71DF80420009003205A
:10384000CDE9010469464846FEF714F8F0200090DF
:10385000CDE901640520CDE9034069463846FEF70D
:1038600009F8C0201227CDE90007CDE902544FF036
:1038700008086946CDF810804846FDF7FBFF4FF475
:103880004070CDE90007CDE902546946CDF81080BB
:103890004846FDF7EFFF68028DE85100694605488C
:1038A000FDF7E8FF07B0BDE8F0830000001002401C
:1038B0000008004800040048134810B51149016091
:1038C0001249416000210122C0E9021201614161F7
:1038D0008161C1610162FEF719F908B1FDF7CCF908
:1038E00000210948FEF7BAF808B1FDF7C5F9002133
:1038F0000548FEF7DEF8002803D0BDE81040FDF7CC
:10390000BBB910BD0078004084030020F4A7E2207A
:10391000144810B512490160134941600021012289
:10392000C0E90212D203C0E904218161C1610162D0
:10393000FEF7ECF808B1FDF79FF900210948FEF702
:103940008DF808B1FDF798F900210648FEF7B1F8A7
:10395000002803D0BDE81040FDF78EB910BD00006F
:1039600000840040D0030020DFC4A020184810B518
:10397000164901604FF416514160002181600C220C
:10398000C160C0E904128161C1610162416281626A
:10399000FFF762FA08B1FDF76FF900210C48FFF755
:1039A00035FA08B1FDF768F900210948FFF708FA70
:1039B00008B1FDF761F90648FFF7E3F9002803D0E5
:1039C000BDE81040FDF758B910BD0000004C0040A4
:1039D00088010020184810B5164901604FF4E13104
:1039E0004160002181600C22C160C0E90412816144
:1039F000C161016241628162FFF72EFA08B1FDF7F1
:103A00003BF900210C48FFF701FA08B1FDF734F942
:103A100000210948FFF7D4F908B1FDF72DF9064850
:103A2000FFF7AFF9002803D0BDE81040FDF724B937
:103A300010BD00000038014014020020184810B5E5
:103A4000164901604FF416514160002181600C223B
:103A5000C160C0E904128161C16101624162816299
:103A6000FFF7FAF908B1FDF707F900210C48FFF755
:103A7000CDF908B1FDF700F900210948FFF7A0F9D9
:103A800008B1FDF7F9F80648FFF77BF9002803D0E5
:103A9000BDE81040FDF7F0B810BD00000048004040
:103AA000A00200201CB50024084D661E286820B125
:103AB0003246694602F050FC0446012CF6D19DF8CE
:103AC000001003A000F066FEF0E7000008000020F0
:103AD0004B65794D73673A25640A0000FEE770472D
:103AE000012001F00FFBFBE71FB5002001900290C1
:103AF0005C208DF80C0024208DF80D004FF47A74B2
:103B0000022303AAE0211D480094FEF7EDF808B156
:103B1000FDF7B2F8062301AAE12118480094FEF748
:103B200051F8BDF804009FED161A40BA00EE100AD5
:103B3000BDF80700F8EE400A40BA00EE100AC0EEE9
:103B4000811ADFED100AB8EE400A61EEA00AFCEE21
:103B5000E00A10EE900AC0EE010A9FED0B1A9FEDED
:103B60000B0AC1B210EE810ABCEEC00A10EE100AB8
:103B7000C2B207A000F00EFE1FBD0000D00300205F
:103B800000FF7F470000C84200002F43000034427E
:103B90000A483A25642C20543D25640A00000000A0
:103BA0003EB5010A8DF804108DF805004FF47A74C3
:103BB000022301AAE0210C480094FEF795F808B111
:103BC000FDF75AF80848FDF79DFF2028FAD1022397
:103BD00002AAE12104480094FDF7F4FF08B1FDF7C3
:103BE0004BF8BDF808003EBDD003002043F217504B
:103BF00000F024F84FF47A742046FDF729FE4EF6C3
:103C0000C870FFF7CDFF010241EA102081B240F6F3
:103C10003F0001EA000204A000F0BCFDFFF764FFD2
:103C2000204602F08FF8F9E70A28307825303478FA
:103C30002949443D3078253034780A001CB5010A02
:103C40008DF804108DF805004FF47A70009002236F
:103C500001AAE0210848FEF747F828B1FDF70CF863
:103C6000B92106A000F096FD0348FDF74BFF202880
:103C7000FAD100201CBD0000D00300206572722024
:103C8000284C3D2564290A0010B5502080F3118886
:103C9000BFF34F8FBFF36F8F02F0A0FC18B1044940
:103CA0004FF080500860002080F3118810BD0000A4
:103CB00004ED00E010B5A8B0382115A8FCF752FBC0
:103CC000142123A8FCF74EFB54216846FCF74AFB5D
:103CD0004FF40070FEF7A0F90220C10118914021B5
:103CE0001590042219911C90CDE91D02CDE91F10F9
:103CF0002190229015A8FEF7D7FC0F2000242390D6
:103D00000320CDE924042694062123A82794FEF756
:103D100061FB0748CDE900044FF000501190039477
:103D20008000129004946846FEF7D4F928B010BDC4
:103D30000D8001000548016841F4700101600349EC
:103D40004FF00060803908607047000088ED00E0A7
:103D50000148FEF70ABF00002C0300202DE9F04FB8
:103D600002682A4B2A4E2B4FDFF8ACC02B4C2C4D4F
:103D70004FF0804B98420BD0584509D0B04207D045
:103D8000B84205D0604503D0A04201D0A84204D17A
:103D900022F070084A6842EA0802DFF88880DFF8FB
:103DA0008890DFF888A0984211D058450FD0B042D3
:103DB0000DD0B8420BD0604509D0A04207D0404595
:103DC00005D0484503D0504501D0A84203D122F484
:103DD0004076CA6832434E6922F080023243026064
:103DE0008A68C2620A688262984209D0A04207D0FB
:103DF000404505D0484503D0504501D0A84201D1E7
:103E00000969016301214161BDE8F08F002C014087
:103E10000004004000080040000C00400034014055
:103E20000050014000400140004401400048014072
:103E30003FB514A1D1E90021CDE9002113A2D2E9B7
:103E40000012CDE90212416EB9B102689168926820
:103E5000C1F34261520F1DF80240E50002ACA25CC2
:103E6000B5FBF2F2A0F86A201DF80120615CD200D7
:103E7000B2FBF1F1A0F868103FBD0121A0F86A1073
:103E8000F8E7000001010103070100000804020433
:103E90000801010190F82810C90706D001684A6896
:103EA000C36A22F400321A434A6090F82810890746
:103EB00006D501684A68036B22F480321A434A60CF
:103EC00090F82810490706D501684A68436B22F428
:103ED00080221A434A6090F82810090706D5016825
:103EE0004A68836B22F400421A434A6090F8281013
:103EF000C90606D501688A68C36B22F480521A434A
:103F00008A6090F82810890606D501688A68036CD3
:103F100022F400521A438A6090F82810490611D5FD
:103F200001684A68436C22F480121A434A60416C6B
:103F3000B1F5801F06D101684A68836C22F4C00283
:103F40001A434A6090F82810090606D501684A68A5
:103F5000C06C22F4002202434A607047F8B5002684
:103F60000446C0F88860FDF773FD054620680068C8
:103F70006FF07E47000708D52B4600224FF4001152
:103F80002046009700F0D2FB60B920680068400727
:103F90000AD52B4600224FF480012046009700F0FE
:103FA000C5FB08B10320F8BD2020C4F88000C4F888
:103FB000840084F87C600020F8BD00002DE9F05FEB
:103FC0000446016880682369E5691843636900272E
:103FD0002B431843636EF64A03430868F54D2840A7
:103FE0001843086020684168E36821F44051194390
:103FF00041602168A069914201D0236A18438B680F
:10400000ED4D2B4003438B602068C16A636A21F049
:104010000F011943C162EA49E84B20688E159842A6
:104020000DD1D1F8881011F0030106D0012969D013
:10403000022965D0032950D166E001254EE0E14B0D
:1040400098420BD1D1F8881011F00C0156D00429F8
:1040500058D0082954D00C293FD155E0DA4B98426A
:104060000BD1D1F8881011F0300147D0102949D078
:10407000202945D0302930D146E0D44B98420BD18D
:10408000D1F8881011F0C00138D040293AD08029E9
:1040900036D0C02921D137E0CD4B98420DD1D1F88F
:1040A000881011F4407129D0B1422BD0B1F5007FB6
:1040B00026D0B1F5407F10D126E090420DD1D1F845
:1040C000881011F4406119D0B1F5806F1AD0B1F5A4
:1040D000006F15D0B1F5406F16D01025DFF8F4A2AF
:1040E0004FF000094FF4004B90426ED175B1022D94
:1040F00029D0042D59D0082D68D176E00025EDE7B0
:104100000225EBE70425E9E70825E7E7FEF770FA63
:104110004DE0012851D0022851D0032851D0042865
:1041200051D0052853D0062853D0072853D008284B
:1041300053D0092853D00A2853D00B2853D03AE043
:10414000B1FBF0F06CE0606AA8B1012817D002283A
:1041500017D0032817D0042817D0052817D0062811
:1041600017D0072817D0082817D0092817D00A28F1
:1041700017D00B2817D00120BAFBF0F050E0022036
:10418000FAE70420F8E70620F6E70820F4E70A201B
:10419000F2E70C20F0E71020EEE72020ECE74020CB
:1041A000EAE78020E8E73046E6E7FEF745FA014611
:1041B000606A0028ADD10120C2E70220C0E70420D8
:1041C000BEE70620BCE70820BAE738E14AE00A204B
:1041D000B6E70C20B4E71020B2E72020B0E740207B
:1041E000AEE78020ACE73046AAE7606AA8B10128B4
:1041F00022D0022822D0032822D0042822D0052849
:1042000022D0062822D0072822D0082822D0092828
:1042100022D00A2822D00B2822D00120BBFBF0F0AC
:10422000002820D06168884601EB4101814219D8FD
:10423000B0EB083F16D817E00220EFE70420EDE7C7
:104240000620EBE70820E9E70A20E7E70C20E5E78E
:104250001020E3E72020E1E74020DFE78020DDE7D2
:104260003046DBE701270EE27DB3022D7ED0042D20
:1042700073D0082DF6D1606AA8B101286ED002284B
:104280006DD003286CD004286BD005286AD006288E
:1042900069D0072868D0082867D009287ED00A2866
:1042A0007DD00B2800D0012632464D4600235846CB
:1042B0000021FCF70DF8090241EA106102024FEA01
:1042C00058001018694142463DE0FFE7FEF790F9BB
:1042D0009AE0012815D0022815D0032815D004280B
:1042E00015D0052815D0062815D0072815D0082880
:1042F00015D0092815D00A2815D00B2814D001266E
:1043000012E0022610E004260EE006260CE0082645
:104310000AE00A2608E00C2606E0102604E0202623
:1043200002E0402600E080260023084632464D4643
:104330001946FBF7CDFF0902626841EA10610302EA
:104340005008181869410023FBF7C2FF224AA0F564
:104350004071914270D985E708E053E05AE05BE094
:104360005CE05DE05EE05FE060E061E0606AC0B19B
:10437000012833D0022833D0032833D0042833D087
:10438000052833D0062833D0072833D0082833D067
:10439000092833D00A2833D00B2801E04AE04CE04A
:1043A00000D0012632464D460023504680E70000EB
:1043B00000800040F369FFCFFFF4FF110038014097
:1043C000001002400044004000480040004C004003
:1043D000005000400024F400FFFC0F000226E1E73B
:1043E0000426DFE70626DDE70826DBE70A26D9E70D
:1043F0000C26D7E71026D5E72026D3E74026D1E7BD
:104400008026CFE7FEF718F90146606A00283FF4DE
:1044100076AF5EE7022647E7042645E7062643E730
:10442000082641E70A263FE70C263DE710263BE732
:10443000202639E7402637E723E1802634E7E06984
:104440004FF6EF7858456ED1092D84D2DFE805F09C
:1044500006093C0580050505830003E7FEF7C8F85B
:1044600001E0FEF7D7F80146606AA8B1012815D02F
:10447000022815D0032815D0042815D0052815D0FA
:10448000062815D0072815D0082815D0092815D0DA
:104490000A2815D00B2814D0012612E0022610E0BD
:1044A00004260EE006260CE008260AE00A2608E0AC
:1044B0000C2606E0102604E0202602E0402600E05C
:1044C0008026B1FBF6F01AE0606AA8B101282BD073
:1044D00002282BD003282BD004282BD005282BD042
:1044E00006282BD007282BD008282BD009282BD022
:1044F0000A282BD00B2800D00126BAFBF6F0410089
:10450000606801EB5001B1FBF0F080B2A0F1100146
:104510004145A2D84FF6F0710140C0F3420001437B
:104520002068C160AFE046E00226E6E70426E4E743
:104530000626E2E70826E0E70A26DEE70C26DCE7A7
:104540001026DAE72026D8E74026D6E78026D4E7EB
:10455000FEF772F887E7606AA8B1012817D0022831
:1045600017D0032817D0042817D0052817D00628FD
:1045700017D0072817D0082817D0092817D00A28DD
:1045800017D00B2800D00126BBFBF6F0B7E70226B8
:10459000FAE70426F8E70626F6E70826F4E70A26EF
:1045A000F2E70C26F0E71026EEE72026ECE740269F
:1045B000EAE78026E8E7092DBFF4CDAEDFE805F095
:1045C00006093C058305050586004BE6FEF710F855
:1045D00001E0FEF71FF80146606AA8B1012815D076
:1045E000022815D0032815D0042815D0052815D089
:1045F000062815D0072815D0082815D0092815D069
:104600000A2815D00B2814D0012612E0022610E04B
:1046100004260EE006260CE008260AE00A2608E03A
:104620000C2606E0102604E0202602E0402600E0EA
:104630008026B1FBF6F11AE0606AA8B101282ED0FD
:1046400002282ED003282ED004282ED005282ED0C4
:1046500006282ED007282ED008282ED009282ED0A4
:104660000A282ED00B2800D00126BAFBF6F160688C
:1046700001EB5001B1FBF0F080B2A0F11001414517
:10468000A3D82168C8600120A4F86A0024F8680F44
:104690003846C4F80490C4F80890BDE8F09F02269C
:1046A000E3E70426E1E70626DFE70826DDE70A263A
:1046B000DBE70C26D9E71026D7E72026D5E74026EA
:1046C000D3E78026D1E7FDF7B7FF84E7606AA8B19A
:1046D000012817D0022817D0032817D0042817D094
:1046E000052817D0062817D0072817D0082817D074
:1046F000092817D00A2817D00B2800D00126BBFBA9
:10470000F6F1B4E70226FAE70426F8E70626F6E70C
:104710000826F4E70A26F2E70C26F0E71026EEE773
:104720002026ECE74026EAE78026E8E72DE9F0417D
:10473000984617460E460446069D08E0681C06D0BB
:10474000FDF786F9A0EB0800A8420BD855B1206808
:10475000C06936EA000019D00020B842EED000202F
:10476000BDE8F0812068016821F4D0710160206803
:10477000816821F0010181602020C4F88000C4F824
:104780008400002084F87C000320E9E70120E4E7AE
:10479000FEE700000FB4054B10B503A9044A0298C8
:1047A00000F0EAF810BC5DF814FB0000A950000806
:1047B000940000200907090E002804DB00F1E02026
:1047C00080F80014704700F00F0000F1E02080F83E
:1047D000141D704702E008C8121F08C1002AFAD150
:1047E00070477047002001E001C1121F002AFBD171
:1047F000704700002DE9FF5F82B00021DDE9043041
:10480000020DDDF840B0034318D044F61050A2F278
:10481000FF3242431514119801281FD0A5EB0B005D
:10482000401C5FEA000A4FF000064E4FDFF8389157
:10483000B046504615D5CAF1000413E01198012482
:104840004AA3012801D16FEA0B010298119AC0E92D
:104850000031C0E9024206B0BDE8F09FCBF1000094
:10486000DFE704460021404A491842EB0450CDE9F5
:10487000001012E0E00707D032463B46404649466A
:10488000FBF77BFD8046894632463B46104619467B
:10489000FBF773FD06460F466410002CEAD1DDE9F4
:1048A0000401DDE90023BAF1000F06DAFBF765FD2C
:1048B00042464B46FBF761FD05E0FBF716FF42461B
:1048C0004B46FBF712FF04460E460022284BFBF72F
:1048D00093FF03D84FF0FF30014607E00022254B3D
:1048E00020463146FBF75AFEFBF76EFF102409E025
:1048F000002C0ADB0A220023FBF7EAFC039B303280
:104900001A55641E50EA0102F2D1641C039AC4F1E4
:1049100011031444119A012A03D0012208430DD136
:104920000AE0084304D000204FF0110B119072E709
:10493000A3EB0B056D1E0DE05B4504DD4FF000029F
:1049400005F1010504E003DA4FF00002A5F10105CD
:10495000002AECD002981199C0E90231C0E9004563
:1049600079E70000000014400000F03F3000000034
:104970000000F0430000E03F2DE9FF4F95B09B465B
:104980008946064600250FE2252877D100242746D0
:10499000F84A0121059400E0044316F8013F203B4A
:1049A00001FA03F01042F7D130782A2811D06FF0C5
:1049B0002F033078A0F13002092A16D8059A44F066
:1049C000020402EB820203EB42021044761C0590C3
:1049D000EFE759F8042B0592002A03DA504244F419
:1049E0000054059044F00204761C30782E2816D12D
:1049F00016F8010F44F004042A280DD06FF02F029E
:104A00003078A0F13003092B09D807EB870302EBBC
:104A10004303C718761CF3E759F8047B761C3078FB
:104A20006C280FD006DC4C2817D068280DD06A28D7
:104A300014D104E0742810D07A280FD10DE044F48A
:104A400000140AE044F4801401E044F44014727845
:104A5000824202D104F58014761C761C30786628D8
:104A60000BD013DC582877D009DC002875D04528F6
:104A7000F6D04628F4D047281AD19DE118E06328E3
:104A800035D0642879D0652812D195E1702873D08B
:104A900008DC6728F1D069286FD06E280DD06F2808
:104AA00006D1B5E073282CD0752875D0782874D03D
:104AB0005A46179990476D1C75E1C4F302500228BD
:104AC00009D003280DD0D9F8001004280DD00D60AE
:104AD00009F1040967E1D9F80010EA17C1E90052A9
:104AE000F6E7D9F800100D80F2E70D70F0E719F83D
:104AF000041B8DF8001000208DF80100EA4601200B
:104B000003E059F804AB4FF0FF3061074FF00001AC
:104B100002D40DE008F101018846B9420FDA804560
:104B2000F8DB1AF808100029F4D108E008F10101B7
:104B300088468142FADB1AF808100029F6D1059858
:104B40005B46A0EB080721463846179A00F094FA16
:104B5000284400EB080507E04DE029E10DE01AF8D4
:104B6000010B5A4617999047B8F10108F7D25B46F6
:104B700021463846179A13E142E00A220092C4F314
:104B800002524FF0000A022A08D059F804CB032A37
:104B90004FEAEC710AD00DE029E02AE009F10701A3
:104BA00021F00702F2E802C1914609E00FFA8CFCFD
:104BB0004FEAEC71042A03D14FFA8CFC4FEAEC71F6
:104BC000002907DA0A460021DCF1000C61EB020142
:104BD0002D2202E0220504D52B228DF8042001228B
:104BE00003E0E20701D02022F7E7904659E00A21CE
:104BF00002E010220DE010214FF0000A00910BE0BE
:104C000010224FF0000A44F004040827009203E049
:104C100008224FF0000A0092C4F30252022A05D083
:104C200059F804CB0021032A08D009E009F1070153
:104C300021F00702F2E802C1914605E01FFA8CFC60
:104C4000042A01D10CF0FF0C4FF00008220728D5F0
:104C5000702806D0009B83F0100353EA0A0305D0A6
:104C60000EE040228DF80420012208E05CEA0102F7
:104C700006D030228DF804208DF8050002229046DF
:104C8000009B83F0080353EA0A030AD15CEA01029D
:104C900001D1620705D530228DF804204FF00108BC
:104CA0007F1E582804D034A003900EA802900DE077
:104CB00036A0F9E753466046009AFBF709FB8446A5
:104CC0000398825C0298401E029002705CEA010028
:104CD000F0D1029806A9081A00F1200A600702D54F
:104CE00024F4803400E00127574502DDA7EB0A00D9
:104CF00000E0002000EB0A01009005984144401AB2
:104D00000590E00306D45B462146179A059800F00B
:104D1000B3F90544002706E001A85A46C05D17997B
:104D200090476D1C7F1C4745F6DBE0030CD55B46C6
:104D30002146179A059800F09FF9054404E03020B9
:104D40005A46179990476D1C0099481E00900029FB
:104D5000F5DC08E0029802995A460078491C029155
:104D6000179990476D1CBAF10001AAF1010AF1DC14
:104D700065E100000928010030313233343536371F
:104D80003839616263646566000000003031323397
:104D90003435363738394142434445460000000037
:104DA00000F058F90544761C307800287FF4ECAD0B
:104DB00019B02846BDE8F08F620700D4062709F134
:104DC000070222F0070CFCE80223E14603F000484A
:104DD0005FEA080C02D00FF2702C0DE05FEA045C71
:104DE00002D50FF2682C07E05FEAC47C02D00FF214
:104DF000602C01E0AFF2700C4FF0FF3823F000435D
:104E0000CDF850C065280CD006DC452809D04628CE
:104E10001DD047283DD13DE0662818D067287ED1B7
:104E200038E00021112F01DB112000E0781CCDE9D2
:104E3000000106A90EA8FFF7DDFCDDE90F010E9ABF
:104E400003910021009207F1010A04914DE04FF017
:104E500000400097CDE9011006A90EA8FFF7CAFC93
:104E6000DDE90F0203920E9B11990022DDF80CA0E0
:104E70000093049211B9791C00EB010AB7EB0A0008
:104E800004D4C0F1FF3007F1010A0490AAEB070037
:104E9000019044E0012F00DA01270021112F01DDEC
:104EA000112000E03846CDE9000106A90EA8FFF761
:104EB000A1FCDDE90F010E9A0391002104910092FB
:104EC000BA4621070CD40399514500DA8A46BAF153
:104ED000010F05DD009AAAF10101515C302908D0CB
:104EE000B84202DA10F1040F06DA0121CDE901100F
:104EF00015E0AAF10101E9E7002805DC0499014465
:104F00000491AAEB000102E0411C514500DD8A46F4
:104F10000499401A401C01904FF000400290200775
:104F200004D40198504501DBCDF8048000208DF8B1
:104F30004F0002980DF14F07B0F1004F25D02B2004
:104F40000E9002984FF0020800280CDA40420290BE
:104F50002D200E9007E00A210298FBF78DFA3031E0
:104F6000029007F8011DB8F10001A8F10108F2DC78
:104F700002980028EFD1791E0E980870307800F062
:104F8000200040F0450007F8020D12A8C01B00F1F8
:104F900007081498007800B1012000EB0A0101987D
:104FA00001EBE07105984144401A401E0590E00372
:104FB00006D45B462146179A059800F05DF8054433
:104FC0001498007818B15A46179990476D1CE00361
:104FD00024D55B462146179A059800F04DF8054404
:104FE0001CE00498002807DBDDE90301884203DDAB
:104FF0000098405C179901E0179930205A46904775
:10500000049805F10105401C04900198401E019090
:1050100004D12E205A46179990476D1CBAF1000111
:10502000AAF1010ADDDC05E017F8010B5A461799D1
:1050300090476D1CB8F10001A8F10108F4DC5B4653
:105040002146179A0598ABE62D0000002B000000C2
:10505000200000002DE9F041044600251E461746B9
:10506000880404D405E039462020B0476D1C641E36
:10507000F9D52846BDE8F0812DE9F0410446002528
:105080001E469046C80301D5302700E0202788043B
:1050900004D505E041463846B0476D1C641EF9D57D
:1050A0002846BDE8F081000013B54FF6FF730122DA
:1050B00069460248FDF776FF00981CBD14020020E7
:1050C0000549002049684A79802A03D08A718020E6
:1050D000487101207047000000000020FBF790FDA0
:1050E000054906A0FFF756FB00F026F8FEF72CFB5B
:1050F00000F03CF8FEE700002B69000825732069EA
:105100006E0A000010B5EFF3058179B9EFF3108155
:1051100011B9EFF3118119B106490968022905D0C7
:10512000002408B100F00EFE204610BD6FF005040B
:10513000FAE700006C000020EFF3058068B9EFF398
:1051400010820949086812B9EFF311820AB10228E6
:1051500003D028B14FF0FF3070476FF00500704763
:1051600001200860002070476C00002010B5EFF3AC
:10517000058070B9EFF310820A49086812B9EFF39D
:1051800011820AB1022804D0012805D04FF0FF3067
:1051900010BD6FF0050010BD0220086000F03AFE5F
:1051A000002010BD6C0000202DE9FF414FEA0103F3
:1051B0004FF00005EFF30581039599BBEFF31081E4
:1051C00011B9EFF3118119B11F490968022938D0CB
:1051D00040B38026182100244AB3176807B13C4623
:1051E00097691FB139467F1E382F02D21779FF0702
:1051F00003D0002004B0BDE8F081576907B1BE08B4
:10520000D2F808C0BCF1000F0DD0D5685C2D18D3C2
:1052100012693AB137B18DE806103246214601F0E5
:105220009EF903900DE0D7685FB912694AB903AAE5
:10523000CDE90012B2B2214601F064F9012800D094
:1052400003950398D6E700006C0000202DE9F0419B
:10525000134C0F46054666692068001D00F042FCAD
:10526000681C07D137B12168BDE8F0410D48091D20
:1052700000F088BC20683544B5424560216805D2FD
:10528000A068BDE8F041091D00F064BC6068091D1C
:1052900000F060FC206B854200D22563BDE8F08100
:1052A0001C0000200C0900202DE9F041054600F00B
:1052B00075FC2D4C2069401C206120682B4F10B1DB
:1052C000E06930B32BE025602069012827D1002652
:1052D00006EB860007EB800000F02EFC761C382ED3
:1052E000F6D3234800F028FC2148143000F024FCB9
:1052F0001F48283000F020FC1D483C3000F01CFC0A
:105300001B48503000F018FC194860601430A06051
:1053100005E02068E96AC06A884200D82560E06A32
:10532000401CE0626864E86AA169884200D9A06113
:1053300000EB800007EB8000291D00F023FC00F04B
:105340004DFCE06900280CD02068E96AC06A8842F8
:1053500007D208494FF080500860BFF34F8FBFF36A
:105360006F8FBDE8F08100001C0000205C0400206D
:10537000BC08002004ED00E038B500F00FFC104C34
:10538000A068C8B90F4800F0D7FB0E48143000F0F1
:10539000D3FB0C482060143060600A4B0020283397
:1053A000009003F1500210210A2000F04FFEA0608F
:1053B00010B105A100F090FCBDE8384000F00EBC33
:1053C0005800002020090020546D72510000000098
:1053D00030B4026C0B46002A0BD0C1681144C16086
:1053E0008468A14201D30168C16030BC1846FAF755
:1053F000A0BF30BC70472DE9F041856B17460446CD
:105400000026026C82B1C7B1E068FAF792FFE1684A
:10541000206C091AE1602268914202D2A168081A40
:10542000E060022F16D017E02068A8B9A06801F04C
:1054300039F906460020A0600EE06068FAF779FFAF
:10544000216C606808446060A168884204D32068C9
:10545000606001E005B16D1E6D1CA5633046BDE8BE
:10546000F08110B5044690F8590058B101280CD0CD
:1054700002280FD0502080F31188BFF34F8FBFF365
:105480006F8FFEE7206B00F0BDFB2046BDE81040AB
:1054900000F0B8BB10BD000010484FF44061420757
:1054A00006D0C01D0D4920F00700411AC1F540612A
:1054B0000B4A00230144C2E900030839103A21F0E5
:1054C000070111604B600B600B1AC0E90013936079
:1054D0004FF000405360D06070470000F010002093
:1054E00080000020144E154CA6F29C474FF08058C7
:1054F000DFF84C9012E000BF00F050FBF068C56888
:10550000281D00F0EFFA2069401E2061E068401E6F
:10551000E06000F063FB2846FFF7A3FFE068002887
:10552000EAD138680128F9D9C9F80080BFF34F8F54
:10553000BFF36F8FF2E70000F80800201C00002086
:1055400004ED00E070B51D46049C51B1C4F8002084
:10555000C4E90F010121204600F0ACFD84F84C5055
:1055600070BD2460F4E700002DE9F05F8846DDE9B6
:105570000B941546834691009A460A9EA522206BFD
:10558000FAF7E9FE6FF00301206B01EB8501084497
:1055900020F00707780707D0502080F31188BFF369
:1055A0004F8FBFF36F8FFEE70025B8F1000F0FD0CC
:1055B0005FF00000221818F8001082F8341018F874
:1055C000001011B1401C1028F4D384F8435001E0BE
:1055D00084F83450382E00D33726E662C4E91365C8
:1055E000201D00F0B4FA04F1180000F0B0FA2461B4
:1055F000C6F138006462A061656584F8585052466F
:105600005946384600F058FA2060B9F1000F01D031
:10561000C9F80040BDE8F09F30B5114900E01146DF
:105620000A688242FBD34B685C18844203D140680D
:1056300018444860084643681C18944209D1084C35
:10564000103C2468A24209D052681A4442600A6899
:1056500012680260814200D0086030BD0460F9E742
:105660008000002070B5002441600B4D0061914224
:1056700006D8D11A8269914206D2011D686807E0F6
:105680009A4203D2994201D3012403E0011D286804
:1056900000F060FA204670BD5800002010B50446A6
:1056A00000F07CFAA06B28B15FF0000400F096FADD
:1056B000204610BD0124F9E730B589B03C4D6EE0BD
:1056C0000498002806DADDE90601059A9047049857
:1056D000002864DB069C606910B1201D00F002FA0E
:1056E00003A800F0D7F8024604980A2857D2DFE84A
:1056F00000F00505052D334A05052D3394F82800E3
:1057000040F0010084F828000599A069059B014438
:105710002046FFF7A7FF68B3216A2046884794F820
:10572000280040073BD5002000900598A169002380
:1057300042181946204601F0BFF8D8B9502080F32E
:105740001188BFF34F8FBFF36F8FFEE714F8280F58
:1057500020F00100207022E094F8280040F00100C1
:1057600084F828000598A06128B1811813462046C6
:10577000FFF778FF13E0502080F31188BFF34F8FBD
:10578000BFF36F8FFEE794F82800810703D420460B
:1057900000F038FA03E020F0010084F8280000222D
:1057A00004A9A86800F0D8FD002889D109B030BD4F
:1057B000580000202DE9FC410F46054600F06EFB25
:1057C00001A800F067F80446019818B100F0E2FF64
:1057D000BDE8FC81254EAFB170680068D0B30027EA
:1057E000291B3A46B06800F08BFA00F0D3FF00287E
:1057F000EED11F494FF080500860BFF34F8FBFF3C9
:105800006F8FE5E7A542EBD800F0C4FF306827466C
:10581000C068C468201D00F065F994F828004107AD
:1058200019D5A0692B4641193A462046FFF71AFFC1
:10583000A8B100200346014600902A46204601F008
:105840003BF860B9502080F31188BFF34F8FBFF34E
:105850006F8FFEE707E020F0010084F82800216A3E
:1058600020468847B4E70127BAE700005800002027
:1058700004ED00E006484168096829B14168C9683B
:10588000C9684968016370474FF0FF31FAE70000CB
:105890001C00002070B5054600F09AFE064E044636
:1058A0003069844203D200F009F8012000E00020B2
:1058B00028602046346170BD58000020F8B5194DAD
:1058C00020E0C068C4680668201D00F00BF9216A5A
:1058D0002046884794F82800400713D5A069304433
:1058E000B04206D924616060211D286800F032F9B9
:1058F00008E000200346014600903246204600F0B2
:10590000DBFF38B1286801680029DAD16968C5E988
:105910000010F8BD502080F31188BFF34F8FBFF304
:105920006F8FFEE75800002008484068401C4FF089
:10593000500080F3118804D0BFF34F8FBFF36F8FF7
:10594000FEE7BFF34F8FBFF36F8FFEE788000020A5
:10595000074C2068016841B1C0680021D0F8000000
:10596000FFF728FFFFF7A8FEF3E701210020F7E784
:10597000580000202DE9F041044600F00FF994F999
:10598000455004F1240609E0606A48B1304600F051
:10599000C9FE08B100F004FA6D1E6DB2002DF3DCF3
:1059A0004FF0FF3684F8456000F018F900F0F6F883
:1059B00094F9445004F1100709E0206948B13846D1
:1059C00000F0B0FE08B100F0EBF96D1E6DB2002DD5
:1059D000F3DC84F84460BDE8F04100F0FFB800005B
:1059E0002DE9F0410546002700F058FA314E3068A5
:1059F00008B9FFF751FDF06805424BD1C5B3083532
:105A000068070ED005F00700C0F1080005446807DC
:105A100007D0502080F31188BFF34F8FBFF36F8FF3
:105A2000FEE72DB37068854234D822481030014615
:105A30000C6801E020460C466168A94202D2216848
:105A40000029F7D131688C4224D0076821680160B1
:105A500060680837411B10290FD96019420708D028
:105A6000502080F31188BFF34F8FBFF36F8FFEE795
:105A700010E041606560FFF7CFFD61687068401A13
:105A80007060B268904200D2B060F06801430020BC
:105A9000C4E9000100F07EFE780707D0502080F3B3
:105AA0001188BFF34F8FBFF36F8FFEE73846BDE815
:105AB000F08100007000002010B5031F4FF08074CB
:105AC0001C601B1F21F001011960191F044B0B60A2
:105AD00014390A60091F6FF0020244380A6010BDD1
